S01C00002E2E2F506572666F726D616E63655F546573745F342E73313949
S32D0000C0000000002055180100B11B0100B11B0100B11B0100B11B0100B11B010000000000000000000000000083
S32D0000C02800000000B11B0100B11B010000000000B11B0100B11B0100B11B0100B11B0100B11B0100B11B010082
S32D0000C050B11B0100B11B0100B11B0100B11B0100B11B0100B11B0100B11B0100B11B0100B11B0100B11B0100C0
S32D0000C078B11B0100B11B0100B11B0100B11B0100B11B0100B11B0100B11B0100B11B0100B11B0100B11B010098
S32D0000C0A0B11B0100B11B0100B11B0100B11B0100B11B0100B11B0100B11B0100B11B0100B11B0100B11B010070
S32D0000C0C8B11B0100B11B0100B11B0100B11B0100B11B0100B11B0100B11B0100B11B0100B11B0100B11B010048
S32D0000C0F0B11B0100DD6A0100B11B0100B11B0100B11B0100B11B0100B11B0100B11B0100B11B0100B11B0100A5
S32D0000C118B11B0100B11B0100B11B0100B11B0100B11B0100B11B0100B11B0100B11B0100B11B0100B11B0100F7
S32D0000C140B11B0100B11B0100B11B0100B11B010075340100B11B0100B11B0100B11B0100B11B0100B11B0100F2
S32D0000C168B11B0100B11B0100B11B0100B11B0100B11B0100B11B0100B11B0100B11B0100B11B0100B11B0100A7
S32D0000C190B11B0100B11B0100B11B0100292F01007D2D0100512E0100011C010001300100B11B0100B11B0100AC
S32D0000C1B8B11B0100B11B0100B11B0100B11B0100B11B0100B11B0100B11B0100B11B0100B11B0100B11B010057
S32D0000C41081F0004102E000BF83F0004330B54FEA41044FEA430594EA050F08BF90EA020F1FBF54EA000C55EAC6
S32D0000C438020C7FEA645C7FEA655C00F0E2804FEA5454D4EB5555B8BF6D420CDD2C4480EA020281EA030382EA0F
S32D0000C460000083EA010180EA020281EA0303362D88BF30BD11F0004F4FEA01314FF4801C4CEA113102D0404263
S32D0000C48861EB410113F0004F4FEA03334CEA133302D0524263EB430394EA050F00F0A780A4F10104D5F1200E8A
S32D0000C4B00DDB02FA0EFC22FA05F2801841F1000103FA0EF2801843FA05F359410EE0A5F120050EF1200E012A2D
S32D0000C4D803FA0EFC28BF4CF0020C43FA05F3C01851EBE37101F0004507D54FF0000EDCF1000C7EEB00006EEB67
S32D0000C5000101B1F5801F1BD3B1F5001F0CD349085FEA30004FEA3C0C04F101044FEA445212F5800F80F09A8000
S32D0000C528BCF1004F08BF5FEA500C50F1000041EB045141EA050130BD5FEA4C0C404141EB010111F4801FA4F114
S32D0000C5500104E9D191F0000F04BF01460020B1FA81F308BF2033A3F10B03B3F120020CDA0C3208DD02F1140C87
S32D0000C578C2F10C0201FA0CF021FA02F10CE002F11402D8BFC2F1200C01FA02F120FA0CFCDCBF41EA0C019040B1
S32D0000C5A0E41AA2BF01EB0451294330BD6FEA04041F3C1CDA0C340EDC04F11404C4F1200220FA04F001FA02F3B6
S32D0000C5C840EA030021FA04F345EA030130BDC4F10C04C4F1200220FA02F001FA04F340EA0300294630BD21FAA8
S32D0000C5F004F0294630BD94F0000F83F4801306BF81F480110134013D4EE77FEA645C18BF7FEA655C29D094EA1C
S32D0000C618050F08BF90EA020F05D054EA000C04BF1946104630BD91EA030F1EBF0021002030BD5FEA545C05D1A3
S32D0000C6404000494128BF41F0004130BD14F580043CBF01F5801130BD01F0004545F0FE4141F470014FF0000031
S32D0000C66830BD7FEA645C1ABF194610467FEA655C1CBF0B46024650EA013406BF52EA033591EA030F41F40021D7
S32D0000C69030BD00BF90F0000F04BF0021704730B54FF4806404F132044FF000054FF0000150E700BF90F0000F66
S32D0000C6B804BF0021704730B54FF4806404F1320410F0004548BF40424FF000013EE700BF42004FEAE2014FEAF9
S32D0000C6E031014FEA02701FBF12F07F4393F07F4F81F06051704792F0000F14BF93F07F4F704730B54FF460741B
S32D0000C70801F0004521F0004120E700BF50EA010208BF704730B54FF000050AE050EA010208BF704730B511F046
S32D0000C730004502D5404261EB41014FF4806404F132045FEA915C3FF4DCAE4FF003025FEADC0C18BF03325FEAA0
S32D0000C758DC0C18BF033202EBDC02C2F1200300FA03FC20FA02F001FA03FE40EA0E0021FA02F11444C1E600BF19
S32D0000C78070B54FF0FF0C4CF4E06C1CEA11541DBF1CEA135594EA0C0F95EA0C0F00F0DEF82C4481EA030621EAF3
S32D0000C7A84C5123EA4C5350EA013518BF52EA033541F4801143F4801338D0A0FB02CE4FF00005E1FB02E506F05F
S32D0000C7D00042E0FB03E54FF00006E1FB03569CF0000F18BF4EF0010EA4F1FF04B6F5007F64F5407404D25FEA0F
S32D0000C7F84E0E6D4146EB060642EAC62141EA55514FEAC52040EA5E504FEACE2EB4F1FD0C88BFBCF5E06F1ED8D2
S32D0000C820BEF1004F08BF5FEA500E50F1000041EB045170BD06F0004646EA010140EA020081EA0301B4EB5C0487
S32D0000C848C2BFD4EB0C0541EA045170BD41F480114FF0000E013C00F3AB8014F1360FDEBF002001F0004170BDF0
S32D0000C870C4F10004203C35DA0C341BDC04F11404C4F1200500FA05F320FA04F001FA05F240EA020001F0004207
S32D0000C89821F0004110EBD37021FA04F642EB06015EEA430E08BF20EAD37070BDC4F10C04C4F1200500FA04F32F
S32D0000C8C020FA05F001FA04F240EA020001F0004110EBD37041F100015EEA430E08BF20EAD37070BDC4F12005C7
S32D0000C8E800FA05F24EEA020E20FA04F301FA05F243EA020321FA04F001F0004121FA04F220EA020000EBD37028
S32D0000C9105EEA430E08BF20EAD37070BD94F0000F0FD101F00046400041EB010111F4801F08BF013CF7D041EA6D
S32D0000C938060195F0000F18BF704703F00046520043EB030313F4801F08BF013DF7D043EA0603704794EA0C0FF1
S32D0000C9600CEA135518BF95EA0C0F0CD050EA410618BF52EA4306D1D181EA030101F000414FF0000070BD50EA38
S32D0000C988410606BF1046194652EA430619D094EA0C0F02D150EA013613D195EA0C0F05D152EA03361CBF10467B
S32D0000C9B019460AD181EA030101F0004141F0FE4141F470014FF0000070BD41F0FE4141F4780170BD70B54FF04D
S32D0000C9D8FF0C4CF4E06C1CEA11541DBF1CEA135594EA0C0F95EA0C0F00F0A7F8A4EB050481EA030E52EA03359B
S32D0000CA004FEA013100F088804FEA03334FF0805545EA131343EA12634FEA022245EA111545EA10654FEA002676
S32D0000CA280EF000419D4208BF964244F1FD0404F5407402D25B084FEA3202B61A65EB03055B084FEA32024FF461
S32D0000CA5080104FF4002CB6EB020E75EB030E22BFB61A754640EA0C005B084FEA3202B6EB020E75EB030E22BF22
S32D0000CA78B61A754640EA5C005B084FEA3202B6EB020E75EB030E22BFB61A754640EA9C005B084FEA3202B6EBEA
S32D0000CAA0020E75EB030E22BFB61A754640EADC0055EA060E18D04FEA051545EA16754FEA06164FEAC30343EAAC
S32D0000CAC852734FEAC2025FEA1C1CC0D111F4801F0BD141EA00014FF000004FF0004CB6E711F4801F04BF0143AE
S32D0000CAF00020B4F1FD0C88BFBCF5E06F3FF6AFAEB5EB030C04BFB6EB020C5FEA500C50F1000041EB045170BDBC
S32D0000CB180EF0004E4EEA113114EB5C04C2BFD4EB0C0541EA045170BD41F480114FF0000E013C90E645EA060EC3
S32D0000CB408DE60CEA135594EA0C0F08BF95EA0C0F3FF43BAF94EA0C0F0AD150EA01347FF434AF95EA0C0F7FF499
S32D0000CB6825AF104619462CE795EA0C0F06D152EA03353FF4FDAE1046194622E750EA410618BF52EA43067FF432
S32D0000CB90C5AE50EA41047FF40DAF52EA43057FF4EBAE12E74FF0FF3C06E000BF4FF0010C02E000BF4FF0010C75
S32D0000CBB84DF804CD4FEA410C7FEA6C5C4FEA430C18BF7FEA6C5C1BD001B050EA410C0CBF52EA430C91EA030FEC
S32D0000CBE002BF90EA020F0020704710F1000F91EA030F58BF994208BF90422CBFD8176FEAE37040F0010070476E
S32D0000CC084FEA410C7FEA6C5C02D150EA013C07D14FEA430C7FEA6C5CD6D152EA033CD3D05DF8040B704700BFCD
S32D0000CC308446104662468C461946634600E000BF01B5FFF7B7FF002848BF10F1000F01BD4DF808EDFFF7F4FF13
S32D0000CC580CBF012000205DF808FB00BF4DF808EDFFF7EAFF34BF012000205DF808FB00BF4DF808EDFFF7E0FF18
S32D0000CC8094BF012000205DF808FB00BF4DF808EDFFF7CEFF94BF012000205DF808FB00BF4DF808EDFFF7C4FF40
S32D0000CCA834BF012000205DF808FB00BF4FEA410212F5001215D211D56FF47873B3EB625212D94FEAC12343F0D6
S32D0000CCD0004343EA505311F0004F23FA02F018BF404270474FF00000704750EA013005D111F0004008BF6FF016
S32D0000CCF8004070474FF00000704700BF4A0011D212F5001211D20DD56FF47873B3EB62520ED44FEAC12343F085
S32D0000CD20004343EA505323FA02F070474FF00000704750EA013002D14FF0FF3070474FF0000070474FEA410241
S32D0000CD48B2F1E04324BFB3F5001CDCF1FE5C0DD901F0004C4FEAC0024CEA5070B2F1004F40EB830008BF20F09E
S32D0000CD700100704711F0804F21D113F13872BCBF01F00040704741F480114FEA5252C2F11802C2F1200C10FAB1
S32D0000CD980CF320FA02F018BF40F001004FEAC1234FEAD32303FA0CFC40EA0C0023FA02F34FEA4303CCE77FEA26
S32D0000CDC0625307D150EA01331EBF4FF0FE4040F44000704701F0004040F0FE4040F40000704700BF80F00040CC
S32D0000CDE802E000BF81F0004142001FBF5FEA410392EA030F7FEA226C7FEA236C6AD04FEA1262D2EB1363C1BF06
S32D0000CE10D218414048404140B8BF5B42192B88BF704710F0004F40F4000020F07F4018BF404211F0004F41F4FA
S32D0000CE38000121F07F4118BF494292EA030F3FD0A2F1010241FA03FC10EB0C00C3F1200301FA03F100F000432B
S32D0000CE6002D5494260EB4000B0F5000F13D3B0F1807F06D340084FEA310102F10102FE2A51D2B1F1004F40EB94
S32D0000CE88C25008BF20F0010040EA03007047490040EB000010F4000FA2F10102EDD1B0FA80FCACF1080CB2EB5F
S32D0000CEB00C0200FA0CF0AABF00EBC25052421843BCBFD0401843704792F0000F81F4000106BF80F400000132EB
S32D0000CED8013BB5E74FEA41037FEA226C18BF7FEA236C21D092EA030F04D092F0000F08BF0846704790EA010FD7
S32D0000CF001CBF0020704712F07F4F04D1400028BF40F00040704712F100723CBF00F50000704700F0004343F0DC
S32D0000CF28FE4040F4000070477FEA226216BF08467FEA23630146420206BF5FEA412390EA010F40F480007047C1
S32D0000CF504FF0000304E000BF10F0004348BF40425FEA000C08BF704743F0964301464FF000001CE050EA010264
S32D0000CF7808BF70474FF000030AE000BF50EA010208BF704711F0004302D5404261EB41015FEA010C02BF84465B
S32D0000CFA00146002043F0B64308BFA3F18053A3F50003BCFA8CF2083AA3EBC25310DB01FA02FC634400FA02FC6B
S32D0000CFC8C2F12002BCF1004F20FA02F243EB020008BF20F00100704702F1200201FA02FCC2F1200250EA4C0034
S32D0000CFF021FA02F243EB020008BF20EADC7070474FF0FF0C1CEAD0521EBF1CEAD15392EA0C0F93EA0C0F6FD019
S32D0000D0181A4480EA010C400218BF5FEA41211ED04FF0006343EA501043EA5111A0FB01310CF00040B1F5000FE7
S32D0000D0403EBF490041EAD3715B0040EA010062F17F02FD2A1DD8B3F1004F40EBC25008BF20F00100704790F058
S32D0000D068000F0CF0004C08BF49024CEA502040EA51207F3AC2BFD2F1FF0340EAC250704740F400004FF0000388
S32D0000D090013A5DDC12F1190FDCBF00F000407047C2F10002410021FA02F1C2F1200200FA02FC5FEA310040F1D5
S32D0000D0B8000053EA4C0308BF20EADC70704792F0000F00F0004C02BF400010F4000F013AF9D040EA0C0093F04C
S32D0000D0E0000F01F0004C02BF490011F4000F013BF9D041EA0C018FE70CEAD15392EA0C0F18BF93EA0C0F0AD00B
S32D0000D10830F0004C18BF31F0004CD8D180EA010000F00040704790F0000F17BF90F0004F084691F0000F91F0BB
S32D0000D130004F14D092EA0C0F01D142020FD193EA0C0F03D14B0218BF084608D180EA010000F0004040F0FE4051
S32D0000D15840F40000704740F0FE4040F4400070474FF0FF0C1CEAD0521EBF1CEAD15392EA0C0F93EA0C0F69D044
S32D0000D180A2EB030280EA010C49024FEA402037D04FF0805343EA111143EA10130CF000408B4238BF5B0042F14E
S32D0000D1A87D024FF4000C8B4224BF5B1A40EA0C00B3EB510F24BFA3EB510340EA5C00B3EB910F24BFA3EB9103A4
S32D0000D1D040EA9C00B3EBD10F24BFA3EBD10340EADC001B0118BF5FEA1C1CE0D1FD2A3FF650AF8B4240EBC25018
S32D0000D1F808BF20F0010070470CF0004C4CEA50207F32C2BFD2F1FF0340EAC250704740F400004FF00003013AF1
S32D0000D22037E792F0000F00F0004C02BF400010F4000F013AF9D040EA0C0093F0000F01F0004C02BF490011F4C9
S32D0000D248000F013BF9D041EA0C0195E70CEAD15392EA0C0F08D142027FF47DAF93EA0C0F7FF470AF084676E7AE
S32D0000D27093EA0C0F04D14B023FF44CAF08466EE730F0004C18BF31F0004CCAD130F000427FF45CAF31F0004376
S32D0000D2987FF43CAF5FE700BF4FF0FF3C06E000BF4FF0010C02E000BF4FF0010C4DF804CD4FEA40024FEA41039F
S32D0000D2C07FEA226C18BF7FEA236C11D001B052EA530C18BF90EA010F58BFB2EB030088BFC81738BF6FEAE1706E
S32D0000D2E818BF40F0010070477FEA226C02D15FEA402C05D17FEA236CE4D15FEA412CE1D05DF8040B704700BF16
S32D0000D310844608466146FFE70FB5FFF7C9FF002848BF10F1000F0FBD4DF808EDFFF7F4FF0CBF012000205DF839
S32D0000D33808FB00BF4DF808EDFFF7EAFF34BF012000205DF808FB00BF4DF808EDFFF7E0FF94BF012000205DF8A9
S32D0000D36008FB00BF4DF808EDFFF7D2FF94BF012000205DF808FB00BF4DF808EDFFF7C8FF34BF012000205DF8B1
S32D0000D38808FB00BF4FEA4002B2F1FE4F0FD34FF09E03B3EB12620DD94FEA002343F0004310F0004F23FA02F060
S32D0000D3B018BF404270474FF00000704712F1610F01D1420205D110F0004008BF6FF0004070474FF00000704797
S32D0000D3D8036803B11B181846704700BF03685A004CBF43F0004323F00043C018704700BF2DE9F84F0446914699
S32D0000D40041B301F1FF3BDA46002707EB0A0101EBD1756D1004EBC5063046FFF7E3FF8046681CAB4504EBC000FA
S32D0000D4280DD0FFF7DBFF0138C84504D9BD4209D005F1FF3AE5E7484505D26F1CE1E74FF0FF30F1E7002630469A
S32D0000D450BDE8F88F0E463046BDE8F88F30B52B4B83B004468D1E002B49D0284601A9AFF300800346002822D028
S32D0000D4782A4618460199FFF7BBFF054600281DD0FFF7ACFF6B68A064012B10D0281D002B22DBFFF7A3FF002164
S32D0000D4A0E06421650368002B0FDBFFF79BFF2061002003B030BD002323610520F9E720610920F6E72061092066
S32D0000D4C8F3E7C3F3036058B101280CD002280ED0002020610920E8E70122E0642265DDE7094B2361E1E7094AEF
S32D0000D4F000202261DDE7084900202161D9E7074B0749C81AC2100192B6E700BF0000000029DA000025DA0000AD
S32D0000D51821DA000024C3010014C50100036810B50446D80706D4990704F1480009D500F00DFD23685A0709D576
S32D0000D54018070ED5D90613D510BD00F0FBFC23685A07F5D404F1D00000F004FD23681807F0D404F5D87000F036
S32D0000D56805FD2368D906EBD404F50C70BDE8104000F040BD2DE9F0470F1D054691460FCFADF5916D02AC261D09
S32D0000D5900FC60FCF0FC60FCF0FC697E80F00D5F80C80D5F818A0002786E80F00216C27602846FFF753FF06460C
S32D0000D5B8B94514BF4FF00A094FF00909FEB1A16B49F01009616401208DE8100449462A462B46C04700282BD1BA
S32D0000D5E0002E2AD1204692A94FF410720BF022FF082F28D1216C2846FFF730FF06464FF00909002EDFD1206C1B
S32D0000D60821464FF41072686192A80BF00FFF2F69294692AA4846B847A09B0746636401208DE8100449462A46F4
S32D0000D6302B46C0470028D3D00926304622B00DF5806DBDE8F087072FF6D1201D00F06EFC38B504460D46296C54
S32D0000D6582046FFF7FFFE50B92A6C23696261012021462A4698470828F1D0072801D00EF023F8281D00F056FCF5
S32D0000D68011B933B10220704704298CBF0220012070470F2A01D90220704700EB820118464A68009B1A6070474D
S32D0000D6A810B50A4684B000210B4603AC0094FFF7E3FF039804B010BD11B933B10220704704298CBF0220012020
S32D0000D6D070470F2A01D902207047009900EB8202096818465160704710B584B004AB0C4643F8042D0021009330
S32D0000D6F822460B46FFF7E0FF04B010BD2DE9F04FCD6C8BB00C4655F8041B174600F008021E46039200F0030823
S32D0000D7200795002B40F0CF8009020691216D8DF821300323B8F1020F8DF8203008BFA56B11F0010340F0D3807B
S32D0000D748019304F158030293D5F80090B9F1000F00F0CB80022E00F0AE80B5F80090B5F802A00435A26C0F2198
S32D0000D7702AF0010B38469344FFF796FF834518D829F0010CE3440AF0010A09F00103584543EA4A092CBF002056
S32D0000D7980120B9F1010F12D032D2B8F1000F02D0002840F01D810435CEE70AF0010A09F0010343EA4A09002092
S32D0000D7C0B9F1010FECD1B8F1000F40F0B680C8B16B68D5F800909A1C19D0029A013309920DD0281DFFF7F8FDE6
S32D0000D7E84FEAD972014609AB20460CF0CFFF002800F0F280099A002A40F0BA800835A3E7B9F1020F03D0092025
S32D0000D8100BB0BDE8F08F2B6823F000420092B8F1000F71D1002843D00398002840F0A1800098002800F0A08078
S32D0000D838009BDDF80C90DB0705F1040A40F1B480CDF810800596A846029E12E000998D4200F0D9800996FFF7B5
S32D0000D860BBFD5A46014609AB20460CF093FFA946B0B90AF1040A05F1010950460996FFF7ABFD09AB0146002202
S32D0000D88820460CF083FF0AF1040A834609F101055046BBF1000FD9D04546059EDDF81080009A4A4564D02B683F
S32D0000D8B0002B7BDB0099481C05EB800548E7D5F804A0083552E70B04C1F30740216D06930222B8F1020F05EB42
S32D0000D8D8800508BFA56B8DF8210011F001038DF820203FF42DAF00200190384606A900F019FC002887D1019A49
S32D0000D900002A43D1082083E70D213846D4F82090FFF7CAFE8145CAD1A26A9542C7D10098291D00220423A0623E
S32D0000D928E26223636163286800286EDB01220192BCE70D213846D4F82090FFF7B1FE81457FF45CAFA16A8D42FE
S32D0000D9507FF458AF2846FFF745FD0F2102463846FFF7C2FE384600212246FFF7BDFE07204EE7009900299BD19B
S32D0000D97838460D21FFF794FE099B20626362A562062041E70F213846FFF78AFE0E2102463846FFF7A5FE3846D5
S32D0000D9A00F211E4AFFF7A0FE072031E7043581E7029950460991FFF70FFD039A014609AB20460CF0E7FE002879
S32D0000D9C87FF46EAFCDF8108005960AF1040A4FF00109A846029E4CE7CDF824800835B3E62846FFF7FBFC0435CB
S32D0000D9F00646A56320460CF043FF00283FF407AF38460F213246FFF76FFE072000E74546B2E7009B591C05EB45
S32D0000DA1881009CE7E9A9010002236FE601236DE600236BE62DE9F0470446E8B004290CD8DFE801F0380391938D
S32D0000DA400F00150C012B96B200F07881052B00F0C780022068B0BDE8F087002BF9D1102AF7D82368D90600F115
S32D0000DA68738164A8019200F0CFFA019AA36BD00744BF53F8040B6490910744BF53F8041B6591500744BF53F8D3
S32D0000DA90041B6691110748BF53F8042B64A8A36348BF679200F0AAFA0020D3E7002BD0D1A36BD00791B244BF42
S32D0000DAB853F8042B62608A0744BF53F8042BA260480744BF53F8042BE2600A0744BF53F8042B2261C80644BF04
S32D0000DAE053F8042B62618A0644BF53F8042BA261480644BF53F8042BE2610A0644BF53F8042B2262C80544BFDC
S32D0000DB0853F8042B62628A0544BF53F8042BA262480544BF53F8042BE2620A0544BF53F8042B2263C80444BFB3
S32D0000DB3053F8042B626311F400501CBF53F8042BA2634A0444BF53F8042BE2630A0444BF53F8042B2264002890
S32D0000DB5840D1A3637AE7012078E7032B7FF475AF160C95B2AA19102A3FF66FAF2368180700F10B8144A800F026
S32D0000DB801BFAA76B4FEA450E3B460DB344A90EF1FF3C01EBC60653F8040B62460CF0010146F8040B92B129B13A
S32D0000DBA853F8041B013A46F8041B0BD01846314650F8045B41F8045B5D68031D75600E1D023AF3D107EB8E03F6
S32D0000DBD044A8A36300F0CEF900203BE7002039E777192022BA42FFF434AF012B00F0A9800F2D40F2A9803746FF
S32D0000DBF8F6B1052B7FF429AF0F2D11D82268D0070ED522F00101052B2160204600F0DA8022F0030240F8482B3D
S32D0000DC20019300F093F9019B1FB12268510700F1B880012B00F0BF800F2D75D9002F40F0A080D4F83890002E29
S32D0000DC48C8462EDD49460DF1080A4FEA46080AEBC50251F8046B08F1FF3000F0010A42F8046BA8F1020CD0B107
S32D0000DC70BAF1000F08D051F8040B0CF1FF3CBCF1FF3F42F8040B0ED00E46104656F804AB40F804AB4968ACF176
S32D0000DC98020C5160311D021DBCF1FF3FF0D109EB8808A7B3102D2CBF2E4610260DF5D079414609EBC60CACF59D
S32D0000DCC0C8724FEA470951F8046B09F1FF3000F0010A42F8046BA9F1020CD0B1BAF1000F08D051F8040B0CF1DE
S32D0000DCE8FF3CBCF1FF3F42F8040B0ED00E46104656F804AB40F804AB4968ACF1020C5160311D021DBCF1FF3FCE
S32D0000DD10F0D108EB8908012B2BD00F2DC4F8388008D9FFB9384695E602A8019300F016F9019B83E702A800F05A
S32D0000DD380DF9F2E77719102250E70F2D3FF685AE102F10D9103F54E723F01003236004F50C70019200F058F99D
S32D0000DD60019A82E624A800F0FDF8002072E6002746E708F1040302A8A36300F0E3F8002068E624A80193C5F116
S32D0000DD88100600F0EFF8019B57E723F0080704F5D870276000F00CF9ECE6204622F0040140F8D01B019300F0D1
S32D0000DDB0DDF8019B3DE702A8019300F0C7F8019B002F3FF43EAFC5F110063AE741F0020140F8481B019300F098
S32D0000DDD8C1F8019B24E700BF406C7047F0B50D460F1DC96B296404460FCFADF5117D01AE0FC60FCF0FC60FCF49
S32D0000DE000FC697E80F0086E80F004FF0FF33009310992046FFF722FB58B9266921466A46B04708280646F3D001
S32D0000DE286846FFF77BFB062E03D009200DF5117DF0BD20462946FFF707FC00BF10B4DC6BC16082611946002228
S32D0000DE501C6410BCFFF792BB38B54269C3680A6404460D4623B10122FFF788FB0DF028FC0369214602202A4651
S32D0000DE789847072803D0082804D00DF01DFC281D00F050F820462946FFF7DEFBC36823B1CA6B0A640022FFF7A6
S32D0000DEA06DBB9FE7704700BF08B5836801460BB10120984708BD00BFF0B5D46B171D146405460C460FCFADF554
S32D0000DEC8277D01AE0FC60FCF0FC60FCF0FC697E80F0086E80F004FF0FF330093109990A8FFF7B8FA034690AA83
S32D0000DEF068460C21BBB9FFF7F7FB21466846A847064690A908206A466EB9949B98470528064601D00928E5D106
S32D0000DF186846FFF703FB30460DF5277DF0BD0926F6E700BF00F1340191E838009C46A6464CF8045D90E8FF0FD5
S32D0000DF40E54600BD90EC210B704700BF80EC210B704700BF90EC200B704700BF80EC200B704700BFD0EC200B8E
S32D0000DF68704700BFC0EC200B704700BFF0EC0201F0EC0211F0EC0221F0EC0231F0EC0241F0EC0251F0EC02615F
S32D0000DF90F0EC0271F0EC0281F0EC0291F0EC02A1F0EC02B1F0EC02C1F0EC02D1F0EC02E1F0EC02F1704700BFE6
S32D0000DFB8E0EC0201E0EC0211E0EC0221E0EC0231E0EC0241E0EC0251E0EC0261E0EC0271E0EC0281E0EC029155
S32D0000DFE0E0EC02A1E0EC02B1E0EC02C1E0EC02D1E0EC02E1E0EC02F1704700BFB0FC0181B0FC0191B0FC01A159
S32D0000E008B0FC01B1704700BFA0FC0181A0FC0191A0FC01A1A0FC01B1704700BFEC4600B52DE900502DE9FF1F47
S32D0000E0304FF000032DE90C0001A9FFF7D3FEDDF840E012B0704700BFEC4600B52DE900502DE9FF1F4FF00003FD
S32D0000E0582DE90C0001A9FFF7FBFEDDF840E012B0704700BFEC4600B52DE900502DE9FF1F4FF000032DE90C00CD
S32D0000E08001A9FFF707FFDDF840E012B0704700BFEC4600B52DE900502DE9FF1F4FF000032DE90C0001ABFFF718
S32D0000E0A8CDFEDDF840E012B0704700BFEC4600B52DE900502DE9FF1F4FF000032DE90C0001AAFFF7F5FEDDF804
S32D0000E0D040E012B0704700BF027A03461AB9427A42B9B02070470068013A01021A72000E196070474168501E6D
S32D0000E0F8587251F8040B0322596001021A72000E1960704710B5002184B00C220DEB02040B460094FFF7B0FA62
S32D0000E120039804B010BD00BFF0E700BF2DE9F043064685B00D464FF000094FF47F672846FFF7CAFFB028044683
S32D0000E14800F0B08010F0800120D000F0F003802B74D0902B37D0A02B45D0B02B56D0C02B00F0858000F0F800DB
S32D0000E170D0280BD104F00702511C41F40022304601210523FFF752FC0028D8D0092005B0BDE8F0834FEA800267
S32D0000E19803A85FFA82F800900D220B463046FFF76BFA039B600608F104084CBFC8EB0303434403AC03930094CD
S32D0000E1C0002130460D220B46FFF77AFAB7E700F00F020D2ADAD00F2AD8D0002103AC009430460B4603ACFFF77F
S32D0000E1E84BFA0094E8E7C24302F0070C47FA0CF0210700F47F6248BF42F48042002130460B46FFF70FFC00280D
S32D0000E210BCD194E7B1285DD0B2286ED0B32800F0958000F0FC02B42A46D000F00702531C43F40022012130469F
S32D0000E2380B46FFF7F7FB0028A4D17CE72846FFF747FF210240EA0104B4F5004F9AD0230500211A0C30460B46EB
S32D0000E2602401FFF7E3FB002890D114F4004F18BF4FF0010963E7C62873D0C72800F0848000F0F802C02A00F075
S32D0000E2889280C82800F0A680C9287FF47BAF2846FFF71EFF00F00F0300F0F0015A1C42EA013268E7B9F1000F81
S32D0000E2B000F0838000206AE700F00301481C022140F480220B463046FFF7B0FB00287FF45DAF34E72846FFF7FD
S32D0000E2D8FFFE024600283FF455AF10F0F0017FF451AF30460B46FFF79DFB00287FF44AAF21E700210D220B467E
S32D0000E30003AC30460094FFF7BBF92846FFF7E4FE022402060DD5039B00F07F0000FA04FE03EB0E01284603912E
S32D0000E328FFF7D6FE07340306F1D4039B00F07F0103AA03F5017C01FA04F400920CEB0402039239E72846FFF729
S32D0000E350C3FE00F00F03591C00F0F00041EA003268E72846FFF7B8FE00F00F03591C00F0F00041EA00320321E9
S32D0000E37830460B46FFF756FB00287FF403AFDAE62846FFF7A5FE024600283FF4FBAE10F0F0037FF4F7AE304688
S32D0000E3A00421FFF743FB00287FF4F0AEC7E600F00F01481C40F42022DDE703AC49460E224B4630460094FFF773
S32D0000E3C85BF9304649460F224B460094FFF774F94846D8E62846FFF77BFE00F0F00200F00F001032431C43EA3D
S32D0000E3F00232C4E610B5C26C84B0032054688DF80C00D37924020832084601A9019402928DF80D30FFF78AFE7D
S32D0000E41804B010BD08B5FFF783FE806C08BD00BF08B5FFF77DFEC16CC87901EB800303F1080008BD08B50DF02B
S32D0000E4403FF900BF08B50DF03BF900BF80B582B000AF786039607868396809F0D5FE0346184607F10807BD4685
S32D0000E46880BD00BF80B582B000AF7860786809F0CBFE0346184607F10807BD4680BD00BF80B582B000AF78605F
S32D0000E49039603868FEF760FD03467868194609F0B5FE0346184607F10807BD4680BD00BFB0B586B000AF41F275
S32D0000E4B86420C1F6FF7009F08BF841F23413C1F6FF731B68184603F03FF941F22813C1F6FF731B68184602F0F7
S32D0000E4E03FFB04F029FA02460B4610461946FEF729FC03463B6100BF04F01EFA04460D463869FEF7E9F8024649
S32D0000E5080B4620462946FDF783FF02460B464FF001010C46104619464FF000024FF07E5303F5E003FEF79AFBB2
S32D0000E5300346002B02D14FF000031C46E3B2002BDAD141F23413C1F6FF731B68184603F02FF900BF41F22C1397
S32D0000E558C1F6FF731B68184602F058FB034683F00103DBB2002BF1D141F23013C1F6FF731B681846BA4902F097
S32D0000E580BBFD41F23013C1F6FF731B681846B74902F038FD41F23013C1F6FF731B68184602F066FE4FF00000F9
S32D0000E5A84FF07E5101F5A00104F096F941F23013C1F6FF731B681846AB4902F0AFFD41F23013C1F6FF731B68E9
S32D0000E5D0184602F04DFE4FF000004FF07E5101F5A00104F07DF941F26420C1F6FF7009F0E3FC03461846FEF7E3
S32D0000E5F86FF802460B464FF001010C46104619468FA3D3E90023FEF729FB0346002B02D14FF000031C46E3B203
S32D0000E620002B19D041F26420C1F6FF7009F0C4FC03464FF00102144618468E49FEF79CFE0346002B02D14FF0F3
S32D0000E64800031C46E3B2002B02D04FF0010301E04FF00003002B29D041F23013C1F6FF731C6841F26420C1F692
S32D0000E670FF7009F0A1FC03461846FEF72DF802460B4671A1D1E90001FDF7C6FE02460B4610461946FEF756FB04
S32D0000E69803462046194602F07BFD4FF000004FF07E5101F5A00104F017F92EE041F26420C1F6FF7009F07CFC98
S32D0000E6C003464FF00102144618466B49FEF754FE0346002B02D14FF000031C46E3B2002B17D041F23013C1F62F
S32D0000E6E8FF731C6841F26420C1F6FF7009F060FC03462046194602F011FD4FF000004FF07E5101F5A00104F0F6
S32D0000E710E7F841F23013C1F6FF731B681846524902F0EAFC41F23013C1F6FF731C6841F26420C1F6FF7009F010
S32D0000E7381FFC03464F481946FEF754FB03462046194602F05BFC41F23013C1F6FF731B68184602F089FD41F293
S32D0000E7606420C1F6FF7009F007FC03461846FDF7B3FF02460B464FF001010C461046194633A3D3E90023FEF70D
S32D0000E7886DFA0346002B02D14FF000031C46E3B2002B3BD01AE041F23013C1F6FF731B681846354902F0A4FCBC
S32D0000E7B029A1D1E9000104F093F841F23013C1F6FF731B68184602F053FD25A1D1E9000104F086F841F26420CB
S32D0000E7D8C1F6FF7009F0CCFB03461846FDF778FF02460B464FF001010C461046194616A3D3E90023FEF732FA81
S32D0000E8000346002B02D14FF000031C46E3B2002BC5D169E041F26420C1F6FF7009F0ACFB03464FF001021446FE
S32D0000E82818461449FEF7A4FD0346002B02D14FF000031C46E3B2002B52D03AE0AFF3008066666666667E764036
S32D0000E8506666666666263C409A9999999999A93F9A9999999999B93F00008C4200008441000020420000A5430F
S32D0000E878000000000000E2410000C84141F23013C1F6FF731B6818468F4902F015FC8AA1D1E9000104F020F8F9
S32D0000E8A041F23013C1F6FF731B68184602F0E0FC85A1D1E9000104F013F841F26420C1F6FF7009F059FB0346A9
S32D0000E8C84FF00102144618468049FEF751FD0346002B02D14FF000031C46E3B2002BCDD14FF000004FF07E5186
S32D0000E8F001F5A00103F0F4FF41F23013C1F6FF731B681846744902F047FC41F23013C1F6FF731B68184602F099
S32D0000E918ABFC4FF000004FF07E5101F5A00103F0DBFF04F005F802460B4610461946FEF705FA03463B6168E019
S32D0000E94041F26420C1F6FF7009F036FB03464FF00102144618466149FEF7F0FC0346002B02D14FF000031C46E9
S32D0000E968E3B2002B1DD041F23013C1F6FF731C6841F26420C1F6FF7009F01AFB034655481946FEF72FFA03461A
S32D0000E9902046194602F000FC4FF000004FF07E5101F5A00103F09CFF33E041F26420C1F6FF7009F001FB034606
S32D0000E9B84FF00102144618464649FEF7D9FC0346002B02D14FF000031C46E3B2002B1CD041F23013C1F6FF73A8
S32D0000E9E01C6841F26420C1F6FF7009F0E5FA034618463A49FEF7FAF903462046194602F091FB4FF000004FF0B4
S32D0000EA087E5101F5A00103F067FF41F26420C1F6FF7009F0CDFA03464FF00102144618462D49FEF787FC03460A
S32D0000EA30002B02D14FF000031C46E3B2002B16D141F26420C1F6FF7009F0B6FA03464FF001021446184623493A
S32D0000EA58FEF78EFC0346002B02D14FF000031C46E3B2002B3CD003F063FF04460D463869FDF72EFE02460B460E
S32D0000EA8020462946FDF7C8FC02460B464FF001010C46104619464FF000024FF07E5303F5A003FEF7DFF80346F9
S32D0000EAA8002B02D14FF000031C46E3B2002B17D04FF0010316E000BF9A9999999999A93F9A9999999999B93FF1
S32D0000EAD00000C8410000E2410000A0420000B4420000B2420000B6424FF00003002B7FF427AF41F23013C1F645
S32D0000EAF8FF731B681846DA4902F0DEFA41F23013C1F6FF731C6841F26420C1F6FF7009F03FFA03461846FDF7E3
S32D0000EB20DBFD02460B46104619464FF000024FF0804303F51C13FDF76FFC02460B46104619464FF000024FF00A
S32D0000EB48804303F5C013FDF763FC02460B4610461946FEF7F3F803462046194602F04EFA41F23013C1F6FF73A9
S32D0000EB701B68184602F07CFB4FF000004FF07E5101F5A00103F0ACFE41F26420C1F6FF7009F0F2F903464FF063
S32D0000EB98010214461846B349FEF7EAFB0346002B02D14FF000031C46E3B2002B41D041F26420C1F6FF7009F02C
S32D0000EBC0EBF903461846FDF787FD02460B46104619464FF000024FF0804303F51C13FDF71BFC02460B4614466E
S32D0000EBE81D4641F26420C1F6FF7009F0C1F903461846FDF76DFD02460B461046194696A3D3E90023FDF704FCAD
S32D0000EC1002460B462046294609F0F4FA02460B4610461946FEF78EF803467B6190487969FEF7DCF803467B61EB
S32D0000EC383EE041F26420C1F6FF7009F0A9F903461846FDF745FD02460B46104619464FF000024FF0804303F5B2
S32D0000EC601C13FDF7D9FB02460B4614461D4641F26420C1F6FF7009F07FF903461846FDF72BFD02460B4676A178
S32D0000EC88D1E90001FDF7C4FB02460B462046294609F0B4FA02460B4610461946FEF74EF803467B617869704993
S32D0000ECB0FEF79EF803467B6103F03EFE02460B4610461946FEF73EF803463B6168E041F26420C1F6FF7009F0DB
S32D0000ECD86FF903464FF00102144618467969FEF729FB0346002B02D14FF000031C46E3B2002B1DD041F230135A
S32D0000ED00C1F6FF731C6841F26420C1F6FF7009F053F9034656481946FEF768F803462046194602F039FA4FF009
S32D0000ED2800004FF07E5101F5A00103F0D5FD33E041F26420C1F6FF7009F03AF903464FF0010214461846796912
S32D0000ED50FEF712FB0346002B02D14FF000031C46E3B2002B1CD041F23013C1F6FF731C6841F26420C1F6FF70FC
S32D0000ED7809F01EF9034618463B49FEF733F803462046194602F0CAF94FF000004FF07E5101F5A00103F0A0FDDB
S32D0000EDA041F26420C1F6FF7009F006F9054678693049FEF71BF803464FF00102144628461946FEF7BBFA03461E
S32D0000EDC8002B02D14FF000031C46E3B2002B1BD141F26420C1F6FF7009F0EAF8054678692249FEF701F8034649
S32D0000EDF04FF00102144628461946FEF7BDFA0346002B02D14FF000031C46E3B2002B33D003F092FD04460D4613
S32D0000EE183869FDF75DFC02460B4620462946FDF7F7FA02460B464FF001010C46104619464FF000024FF07E5359
S32D0000EE4003F5A003FDF70EFF0346002B02D14FF000031C46E3B2002B0ED04FF001030DE00000000000403C4093
S32D0000EE6800008C420000E2410000B4420000803F4FF00003002B7FF426AF41F23013C1F6FF731B681846DFF8CA
S32D0000EE90881502F015F941F23013C1F6FF731C6841F26420C1F6FF7009F076F803461846DFF86815FDF79AFFC8
S32D0000EEB803462046194602F0A1F841F23013C1F6FF731B68184602F0CFF94FF000004FF07E5101F5A00103F082
S32D0000EEE0FFFC41F22813C1F6FF731B68184601F027FE4FF000004FF07E5101F5C00103F0EFFC41F26420C1F62B
S32D0000EF08FF7009F055F803464FF0010214461846DFF80415FEF70EFA0346002B02D14FF000031C46E3B2002B4B
S32D0000EF301ED041F23013C1F6FF731C6841F26420C1F6FF7009F038F80346DFF8D4041946FDF74CFF0346204657
S32D0000EF58194602F01DF94FF000004FF07E5101F5A00103F0B9FC35E041F26420C1F6FF7009F01EF803464FF00F
S32D0000EF80010214461846DFF89814FEF7F5F90346002B02D14FF000031C46E3B2002B1DD041F23013C1F6FF730B
S32D0000EFA81C6841F26420C1F6FF7009F001F803461846DFF86414FDF715FF03462046194602F0ACF84FF0000007
S32D0000EFD04FF07E5101F5A00103F082FC41F23013C1F6FF731B681846DFF82C1402F084F841F23013C1F6FF7359
S32D0000EFF81B681846DFF8241402F000F841F23013C1F6FF731B68184602F02EF94FF000004FF07E5101F5A00194
S32D0000F02003F05EFC41F26420C1F6FF7008F0C4FF03464FF0010214461846F949FEF77EF90346002B02D14FF066
S32D0000F04800031C46E3B2002B1DD041F23013C1F6FF731C6841F26420C1F6FF7008F0A8FF0346ED481946FDF718
S32D0000F070BDFE03462046194602F08EF84FF000004FF07E5101F5A00103F02AFC33E041F26420C1F6FF7008F04C
S32D0000F0988FFF03464FF0010214461846DE49FEF767F90346002B02D14FF000031C46E3B2002B1CD041F23013F0
S32D0000F0C0C1F6FF731C6841F26420C1F6FF7008F073FF03461846D249FDF788FE03462046194602F01FF84FF09C
S32D0000F0E800004FF07E5101F5A00103F0F5FB41F26420C1F6FF7008F03BFF03461846FDF7E7FA02460B464FF00F
S32D0000F11001010C4610461946BBA3D3E90023FDF7A1FD0346002B02D14FF000031C46E3B2002B00F07F8141F22B
S32D0000F1383013C1F6FF731C6841F26420C1F6FF7008F036FF03462046194601F0E7FF41F23013C1F6FF731B68A8
S32D0000F160184602F085F84FF000004FF07E5101F5A00103F0B5FB41F26420C1F6FF7008F01BFF03461846FDF7A3
S32D0000F188A7FA02460B464FF001010C46104619469DA3D3E90023FDF761FD0346002B02D14FF000031C46E3B2E6
S32D0000F1B0002B19D041F26420C1F6FF7008F0FCFE03464FF00102144618469749FEF7D4F80346002B02D14FF0E4
S32D0000F1D800031C46E3B2002B02D04FF0010301E04FF00003002B29D041F23013C1F6FF731C6841F26420C1F6F7
S32D0000F200FF7008F0D9FE03461846FDF765FA02460B467FA1D1E90001FDF7FEF802460B4610461946FDF78EFD7D
S32D0000F22803462046194601F0B3FF4FF000004FF07E5101F5A00103F04FFB2EE041F26420C1F6FF7008F0B4FE51
S32D0000F25003464FF00102144618467449FEF78CF80346002B02D14FF000031C46E3B2002B17D041F23013C1F658
S32D0000F278FF731C6841F26420C1F6FF7008F098FE03462046194601F049FF4FF000004FF07E5101F5A00103F0E9
S32D0000F2A01FFB41F23013C1F6FF731B681846604901F022FF41F23013C1F6FF731C6841F26420C1F6FF7008F0F3
S32D0000F2C857FE034658481946FDF78CFD03462046194601F093FE41F23013C1F6FF731B68184601F0C1FF4FF0FE
S32D0000F2F000004FF07E5101F5A00103F0F1FA41F23013C1F6FF731B681846454901F044FF41F23013C1F6FF738C
S32D0000F3181B68184601F0A8FF4FF000004FF07E5101F5A00103F0D8FA41F26420C1F6FF7008F03EFE03464FF00C
S32D0000F3400102144618463649FDF7F8FF0346002B02D14FF000031C46E3B2002B1DD041F23013C1F6FF731C68BF
S32D0000F36841F26420C1F6FF7008F022FE03462A481946FDF737FD03462046194601F008FF4FF000004FF07E51ED
S32D0000F39001F5A00103F0A4FAD8E141F26420C1F6FF7008F009FE03464FF00102144618461B49FDF7E1FF0346CE
S32D0000F3B8002B02D14FF000031C46E3B2002B00F0C18141F23013C1F6FF731C6841F26420C1F6FF7008F0ECFDB2
S32D0000F3E0034618460E49FDF701FD03462046194601F098FE4FF000004FF07E5101F5A00103F06EFAA2E100BFF9
S32D0000F408CDCCCCCCCC4C3C4066666666667E764000007042000038410000B442000050410000A5430000000045
S32D0000F4300000F04141F26420C1F6FF7008F09CFD03464FF0010214461846A149FDF794FF0346002B02D14FF0D5
S32D0000F45800031C46E3B2002B00F0748141F23013C1F6FF731C6841F26420C1F6FF7008F09FFD034620461946DA
S32D0000F48001F050FE41F23013C1F6FF731B68184601F0EEFE4FF000004FF07E5101F5A00103F01EFA41F264201C
S32D0000F4A8C1F6FF7008F084FD03461846FDF710F902460B464FF001010C461046194680A3D3E90023FDF7CAFB57
S32D0000F4D00346002B02D14FF000031C46E3B2002B19D041F26420C1F6FF7008F065FD03464FF001021446184600
S32D0000F4F87649FDF73DFF0346002B02D14FF000031C46E3B2002B02D04FF0010301E04FF00003002B29D041F2BD
S32D0000F5203013C1F6FF731C6841F26420C1F6FF7008F042FD03461846FDF7CEF802460B4661A1D1E90001FCF70F
S32D0000F54867FF02460B4610461946FDF7F7FB03462046194601F01CFE4FF000004FF07E5101F5A00103F0B8F95A
S32D0000F5702EE041F26420C1F6FF7008F01DFD03464FF00102144618465349FDF7F5FE0346002B02D14FF0000321
S32D0000F5981C46E3B2002B17D041F23013C1F6FF731C6841F26420C1F6FF7008F001FD03462046194601F0B2FD98
S32D0000F5C04FF000004FF07E5101F5A00103F088F941F23013C1F6FF731B6818463C4901F06FFD41F23013C1F636
S32D0000F5E8FF731C6841F26420C1F6FF7008F0C0FC034618463449FDF7F5FB03462046194601F0FCFC41F23013F9
S32D0000F610C1F6FF731B68184601F02AFE4FF000004FF07E5101F5A00103F05AF941F23013C1F6FF731B681846FF
S32D0000F638284901F0ADFD41F23013C1F6FF731B68184601F011FE4FF000004FF07E5101F5A00103F041F941F2D4
S32D0000F6606420C1F6FF7008F0A7FC03464FF00102144618461949FDF761FE0346002B02D14FF000031C46E3B2BF
S32D0000F688002B29D041F23013C1F6FF731C6841F26420C1F6FF7008F08BFC03460D481946FDF7A0FB0346204676
S32D0000F6B0194601F071FD4FF000004FF07E5101F5A00103F00DF941E066666666667E76400000F0410000A54325
S32D0000F6D8000000000000B44241F26420C1F6FF7008F066FC03464FF0010214461846DFF83814FDF73DFE0346F9
S32D0000F700002B02D14FF000031C46E3B2002B1DD041F23013C1F6FF731C6841F26420C1F6FF7008F049FC034606
S32D0000F7281846DFF80414FDF75DFB03462046194601F0F4FC4FF000004FF07E5101F5A00103F0CAF841F230131C
S32D0000F750C1F6FF731B681846F64901F0CDFC41F23013C1F6FF731B681846F34901F04AFC41F23013C1F6FF73F6
S32D0000F7781B68184601F078FD4FF000004FF07E5101F5A00103F0A8F841F26420C1F6FF7008F00EFC03464FF03E
S32D0000F7A0010214461846E249FDF7C8FD0346002B02D14FF000031C46E3B2002B1DD041F23013C1F6FF731C68E1
S32D0000F7C841F26420C1F6FF7008F0F2FB0346D6481946FDF707FB03462046194601F0D8FC4FF000004FF07E5175
S32D0000F7F001F5A00103F074F833E041F26420C1F6FF7008F0D9FB03464FF0010214461846C749FDF7B1FD0346FB
S32D0000F818002B02D14FF000031C46E3B2002B1CD041F23013C1F6FF731C6841F26420C1F6FF7008F0BDFB03467B
S32D0000F8401846BB49FDF7D2FA03462046194601F069FC4FF000004FF07E5101F5A00103F03FF841F23413C1F6D5
S32D0000F868FF731B68184601F07FFFA7A1D1E9000103F032F841F23013C1F6FF731B68184601F0B6FE41F23013F5
S32D0000F890C1F6FF731B681846A54901F043FC4FF000004FF07E5101F5A00103F019F841F26420C1F6FF7008F065
S32D0000F8B87FFB03461846FCF70BFF02460B464FF001010C461046194691A3D3E90023FDF7C5F90346002B02D117
S32D0000F8E04FF000031C46E3B2002B19D041F26420C1F6FF7008F060FB03464FF00102144618468E49FDF738FD3A
S32D0000F9080346002B02D14FF000031C46E3B2002B02D04FF0010301E04FF00003002B29D041F23013C1F6FF732B
S32D0000F9301C6841F26420C1F6FF7008F03DFB03461846FCF7C9FE02460B4673A1D1E90001FCF762FD02460B4664
S32D0000F95810461946FDF7F2F903462046194601F017FC4FF000004FF07E5101F5A00102F0B3FF2EE041F264208E
S32D0000F980C1F6FF7008F018FB03464FF00102144618466B49FDF7F0FC0346002B02D14FF000031C46E3B2002BA6
S32D0000F9A817D041F23013C1F6FF731C6841F26420C1F6FF7008F0FCFA03462046194601F0ADFB4FF000004FF037
S32D0000F9D07E5101F5A00102F083FF41F23013C1F6FF731B681846574901F086FB41F23013C1F6FF731C6841F247
S32D0000F9F86420C1F6FF7008F0BBFA03464F481946FDF7F0F903462046194601F0F7FA41F23013C1F6FF731B685C
S32D0000FA20184601F025FC4FF000004FF07E5101F5A00102F055FF41F26420C1F6FF7008F09BFA03464FF0010229
S32D0000FA48144618463D49FDF775FC0346002B02D14FF000031C46E3B2002B33D01AE041F23013C1F6FF731B6823
S32D0000FA701846354901F040FB29A1D1E9000102F02FFF41F23013C1F6FF731B68184601F0EFFB1FA1D1E90001E5
S32D0000FA9802F022FF41F26420C1F6FF7008F068FA03464FF00102144618462449FDF742FC0346002B02D14FF08E
S32D0000FAC000031C46E3B2002BCDD179E041F26420C1F6FF7008F050FA03461846FCF7FCFD02460B464FF0010170
S32D0000FAE80C46104619460EA3D3E90023FDF7D4F80346002B02D14FF000031C46E3B2002B5AD03AE0AFF3008088
S32D0000FB109A9999999999B93F66666666667E76409A9999999999A93F9A99999999193E400000B4420000484272
S32D0000FB380000D8410000A543000000000000F0410000C84141F23013C1F6FF731B681846AB4901F0B1FAA2A111
S32D0000FB60D1E9000102F0BCFE41F23013C1F6FF731B68184601F07CFB9DA1D1E9000102F0AFFE41F26420C1F622
S32D0000FB88FF7008F0F5F903461846FCF7A1FD02460B464FF001010C461046194694A3D3E90023FDF779F803461D
S32D0000FBB0002B02D14FF000031C46E3B2002BC5D141F23013C1F6FF731B6818468F4901F0E3FA4FF000004FF08B
S32D0000FBD87E5101F5A00102F07FFE02F0A9FE02460B4610461946FDF7A9F803463B6168E041F26420C1F6FF70A4
S32D0000FC0008F0DAF903464FF00102144618467F49FDF794FB0346002B02D14FF000031C46E3B2002B1DD041F2B2
S32D0000FC283013C1F6FF731C6841F26420C1F6FF7008F0BEF9034673481946FDF7D3F803462046194601F0A4FA73
S32D0000FC504FF000004FF07E5101F5A00102F040FE33E041F26420C1F6FF7008F0A5F903464FF0010214461846A9
S32D0000FC786449FDF77DFB0346002B02D14FF000031C46E3B2002B1CD041F23013C1F6FF731C6841F26420C1F61D
S32D0000FCA0FF7008F089F9034618465849FDF79EF803462046194601F035FA4FF000004FF07E5101F5A00102F077
S32D0000FCC80BFE41F26420C1F6FF7008F071F903464FF00102144618464B49FDF72BFB0346002B02D14FF000034C
S32D0000FCF01C46E3B2002B16D141F26420C1F6FF7008F05AF903464FF00102144618464149FDF732FB0346002B53
S32D0000FD1802D14FF000031C46E3B2002B27D002F007FE04460D463869FCF7D2FC02460B4620462946FCF76CFBD1
S32D0000FD4002460B464FF001010C46104619464FF000024FF07E5303F5E003FCF783FF0346002B02D14FF000038A
S32D0000FD681C46E3B2002B02D04FF0010301E04FF00003002B7FF43CAF41F23013C1F6FF731B681846224901F0AE
S32D0000FD90B3F941F23013C1F6FF731C6841F26420C1F6FF7008F0F8F803461846FCF794FC02460B4612A1D1E981
S32D0000FDB80001FCF72DFB02460B4610461946FCF7BDFF03462046194601F018F941F23013C1F6FF731B68184674
S32D0000FDE001F046FA8FE000BF9A9999999999A93F9A9999999999B93F9A99999999193E4066666666660650405F
S32D0000FE080000C8410000B4420000B2420000B6420000F04141F26420C1F6FF7008F0B8F803461846FCF754FC41
S32D0000FE3002460B464FF001010C4610461946B0A3D3E90023FCF70EFF0346002B02D14FF000031C46E3B2002BE6
S32D0000FE581BD041F23013C1F6FF731B681846B04901F046F9A6A1D1E9000102F035FD41F23013C1F6FF731B68A0
S32D0000FE80184601F0F5F9A2A1D1E9000102F028FD39E041F26420C1F6FF7008F07DF803461846FCF719FC0246A8
S32D0000FEA80B464FF001010C461046194692A3D3E90023FCF7F1FE0346002B02D14FF000031C46E3B2002B1AD008
S32D0000FED041F23013C1F6FF731B681846924901F0EFF889A1D1E9000102F0FAFC41F23013C1F6FF731B68184684
S32D0000FEF801F0BAF984A1D1E9000102F0EDFC41F26420C1F6FF7008F043F803461846FCF7DFFB02460B464FF021
S32D0000FF2001010C46104619467BA3D3E90023FCF799FE0346002B02D14FF000031C46E3B2002B1ED141F26420D2
S32D0000FF48C1F6FF7008F024F803461846FCF7C0FB02460B464FF001010C46104619466EA3D3E90023FCF798FEA2
S32D0000FF700346002B02D14FF000031C46E3B2002B02D04FF0010301E04FF00003002B7FF445AF41F26420C1F680
S32D0000FF98FF7008F00DF803464FF00102144618466049FDF7C7F90346002B02D14FF000031C46E3B2002B1DD097
S32D0000FFC041F23013C1F6FF731C6841F26420C1F6FF7007F0F1FF034654481946FCF706FF03462046194601F0F1
S32D0000FFE8D7F84FF000004FF07E5101F5A00102F073FC33E041F26420C1F6FF7007F0D8FF03464FF00102144634
S32D0001001018464649FDF7B0F90346002B02D14FF000031C46E3B2002B1CD041F23013C1F6FF731C6841F26420C6
S32D00010038C1F6FF7007F0BCFF034618463949FCF7D1FE03462046194601F068F84FF000004FF07E5101F5A00193
S32D0001006002F03EFC41F23413C1F6FF731B68184601F09EFB4FF000004FF07E5101F5A00102F02EFC02F058FCF1
S32D0001008802460B4610461946FCF758FE03463B616CE041F23013C1F6FF731B681846224901F026F816A1D1E916
S32D000100B0000102F015FC41F23013C1F6FF731B68184601F0D5F810A1D1E9000102F008FC41F22C13C1F6FF73E2
S32D000100D81B68184600F0D8FD0346002B26D041F2FC10C1F6FF704BF66801C0F2010104F061FC3BE0AFF3008098
S32D0001010066666666660650409A9999999999A93F9A9999999999B93F3233333333F34F40999999999909504018
S32D000101280000F0410000B4420000A04141F22C13C1F6FF731B68184600F0C4FD0346002B0AD041F2FC10C1F62F
S32D00010150FF704BF67401C0F2010104F02FFC09E041F2FC10C1F6FF704BF68001C0F2010104F024FC41F22C133E
S32D00010178C1F6FF731B68184600F086FD034683F00103DBB2002B24D002F0D2FB04460D463869FCF79DFA0246A0
S32D000101A00B4620462946FCF737F902460B464FF001010C4610461946ADA3D3E90023FCF751FD0346002B02D14F
S32D000101C84FF000031C46E3B2002B02D04FF0010301E04FF00003002B7FF45BAF41F22C13C1F6FF731B68184648
S32D000101F000F02EFD034641F2FC10C1F6FF70194604F004FC41F22C13C1F6FF731B68184600F096FD4FF0000086
S32D000102184FF07E5101F5A00102F05EFB41F23013C1F6FF731B68184601F032F84FF000004FF07E5101F5A00148
S32D0001024002F04EFB41F22813C1F6FF731B68184600F086FC4FF000004FF07E5101F5E00102F03EFB41F22813AD
S32D00010268C1F6FF731B68184600F066FC4FF000004FF07E5101F5E00102F02EFB41F23013C1F6FF731B6818464C
S32D000102907D497E4A00F0D6FF4FF000004FF0804102F01EFB41F23013C1F6FF731B68184600F0DEFF4FF0000016
S32D000102B84FF07E5101F5A00102F00EFB41F23013C1F6FF731B6818466F4900F061FF41F23013C1F6FF731B68CD
S32D000102E0184600F0C5FF4FF000004FF07E5101F5A00102F0F5FA41F23013C1F6FF731B681846614900F0F8FE08
S32D0001030841F23013C1F6FF731B6818465F4900F075FE41F23013C1F6FF731B68184600F0A3FF15E041F23013BE
S32D00010330C1F6FF731B681846534900F0DDFE4EA1D1E9000102F0CCFA41F23013C1F6FF731B68184600F08CFFD0
S32D0001035841F26420C1F6FF7007F02AFE03464FF00102144618464A49FCF7E4FF0346002B02D14FF000031C46E3
S32D00010380E3B2002BD2D102F0D7FA02460B4610461946FCF7D7FC03463B61B0E041F26420C1F6FF7007F008FEC5
S32D000103A803461846FCF794F902460B464FF001010C461046194630A3D3E90023FCF74EFC0346002B02D14FF0A9
S32D000103D000031C46E3B2002B19D041F26420C1F6FF7007F0E9FD03464FF00102144618462A49FCF7C1FF034684
S32D000103F8002B02D14FF000031C46E3B2002B02D04FF0010301E04FF00003002B44D041F23013C1F6FF731C68DA
S32D0001042041F26420C1F6FF7007F0C6FD03461846FCF752F902460B4611A1D1E90001FBF7EBFF02460B46104660
S32D000104481946FCF77BFC03462046194600F0A0FE4FF000004FF07E5101F5A00102F03CFA49E000BFAFF300800A
S32D00010470333333333333C33F9A9999999999B93F66666666667E764000004842000020420000B4420000803FC7
S32D00010498000000000000344341F26420C1F6FF7007F086FD03464FF00102144618469A49FCF75EFF0346002B7D
S32D000104C002D14FF000031C46E3B2002B17D041F23013C1F6FF731C6841F26420C1F6FF7007F06AFD03462046E2
S32D000104E8194600F01BFE4FF000004FF07E5101F5A00102F0F1F941F26420C1F6FF7007F057FD03461846FCF7FB
S32D00010510E3F802460B464FF001010C46104619467DA3D3E90023FCF79DFB0346002B02D14FF000031C46E3B2F6
S32D00010538002B16D041F26420C1F6FF7007F038FD03464FF00102144618467449FCF710FF0346002B02D14FF0F2
S32D0001056000031C46E3B2002B2DD141F26420C1F6FF7007F021FD03464FF00102144618466949FCF7F9FE03462F
S32D00010588002B02D14FF000031C46E3B2002B3ED041F26420C1F6FF7007F00AFD03464FF00102144618465D4910
S32D000105B0FCF7C4FE0346002B02D14FF000031C46E3B2002B27D002F0B7F904460D463869FCF782F802460B46DF
S32D000105D820462946FBF71CFF02460B464FF001010C46104619464FF000024FF07E5303F5E003FCF733FB03469B
S32D00010600002B02D14FF000031C46E3B2002B02D04FF0010301E04FF00003002B7FF4BEAE41F23013C1F6FF7388
S32D000106281B6818463F4900F063FD41F23013C1F6FF731C6841F26420C1F6FF7007F098FC034639481946FCF743
S32D00010650CDFB03462046194600F0D4FC41F23013C1F6FF731B68184600F002FE4FF000004FF07E5101F5A00191
S32D0001067802F032F941F23013C1F6FF731B6818462A4900F085FD41F23013C1F6FF731B68184600F0E9FD4FF03C
S32D000106A000004FF07E5101F5A00102F019F941F26420C1F6FF7007F07FFC03464FF00102144618461B49FCF799
S32D000106C839FE0346002B02D14FF000031C46E3B2002B2DD041F23013C1F6FF731C6841F26420C1F6FF7007F02D
S32D000106F063FC03460F481946FCF778FB03462046194600F049FD4FF000004FF07E5101F5A00102F0E5F843E0FD
S32D0001071866666666666E764000000000000034430000803F000048420000F0410000B44241F26420C1F6FF70CC
S32D0001074007F03AFC03464FF0010214461846E149FCF712FE0346002B02D14FF000031C46E3B2002B1CD041F223
S32D000107683013C1F6FF731C6841F26420C1F6FF7007F01EFC03461846D449FCF733FB03462046194600F0CAFCDB
S32D000107904FF000004FF07E5101F5A00102F0A0F841F23013C1F6FF731B681846CA4900F087FC41F23013C1F699
S32D000107B8FF731B681846C74900F020FC41F23013C1F6FF731B68184600F04EFD4FF000004FF07E5101F5A00104
S32D000107E002F07EF841F26420C1F6FF7007F0D4FB03464FF0010214461846B949FCF7BCFD0346002B02D14FF068
S32D0001080800031C46E3B2002B2DD041F23013C1F6FF731B681846B14900F04EFC41F23013C1F6FF731C6841F295
S32D000108306420C1F6FF7007F0AFFB03461846A849FCF7D4FA03462046194600F0DBFB41F23013C1F6FF731B68FF
S32D00010858184600F009FD4FF000004FF07E5101F5A00102F039F841F26420C1F6FF7007F07FFB0346FB6041F2F1
S32D000108806420C1F6FF7007F087FB0346BB60F8684FF00201FDF7F8FD0446B8684FF00201FDF7F2FD03462046F9
S32D000108A81946FCF7A1FA03461846FDF7DBFD03467B60F868B968FDF7C5FD034688481946FCF790FA03467B614C
S32D000108D041F23013C1F6FF731B681846796900F05BFC4FF000004FF07E5101F5A00101F0F7FF02F021F8024632
S32D000108F80B4610461946FCF721FA03463B6168E041F26420C1F6FF7007F052FB03464FF001021446184679694A
S32D00010920FCF70CFD0346002B02D14FF000031C46E3B2002B1DD041F23013C1F6FF731C6841F26420C1F6FF7014
S32D0001094807F036FB034678691946FCF74BFA03462046194600F01CFC4FF000004FF07E5101F5A00101F0B8FFF5
S32D0001097033E041F26420C1F6FF7007F01DFB03464FF00102144618467969FCF7F5FC0346002B02D14FF00003C7
S32D000109981C46E3B2002B1CD041F23013C1F6FF731C6841F26420C1F6FF7007F001FB034618467969FCF716FAA3
S32D000109C003462046194600F0ADFB4FF000004FF07E5101F5A00101F083FF41F26420C1F6FF7007F0E9FA054609
S32D000109E878694049FCF7FEF903464FF00102144628461946FCF79EFC0346002B02D14FF000031C46E3B2002BA2
S32D00010A101BD141F26420C1F6FF7007F0CDFA054678693249FCF7E4F903464FF00102144628461946FCF7A0FC78
S32D00010A380346002B02D14FF000031C46E3B2002B25D001F075FF04460D463869FBF740FE02460B4620462946AE
S32D00010A60FBF7DAFC02460B464FF001010C46104619464FF000024FF08043FCF7F3F80346002B02D14FF0000314
S32D00010A881C46E3B2002B02D04FF0010301E04FF00003002B7FF434AF41F23013C1F6FF731B681846104900F09B
S32D00010AB023FB41F23013C1F6FF731B681846796800F0A0FA4FF00003184607F11807BD46B0BD00BF0000B44232
S32D00010AD8000048420000C8410000AC410000F041000034430000803F00008C42AFF3008090B583B000AF786019
S32D00010B004FF00C0009F040FD044620464FF0040102F096FE7B681C607B681B6818464FF4FA7102F0ABFE7B687C
S32D00010B281B68184640F6241102F0C2FE7B68184607F10C07BD4690BD80B582B000AF78607B681B681846034906
S32D00010B5002F0D2FE07F10807BD4680BD0000344380B582B000AF78607B681B681846034902F0C2FE07F108073F
S32D00010B78BD4680BD0000204190B583B000AF786039607B68012B11D13A684FF6FF739A420CD14FF0040009F0D6
S32D00010BA0F3FC04462046FFF7A7FF41F22813C1F6FF731C6007F10C07BD4690BD80B500AF4FF001004FF6FF71A4
S32D00010BC8FFF7DAFF80BD00BF90B583B000AF78604FF0010009F0D4FC044620464FF0120102F072FA7B681C606C
S32D00010BF04FF0010009F0C8FC044620464FF0100102F066FA7B685C607B68184607F10C07BD4690BD90B583B0D4
S32D00010C1800AF7860786800F027F803464FF00102144618460749FCF785FB0346002B02D14FF000031C46E3B2B1
S32D00010C40184607F10C07BD4690BD00BF0000003F80B582B000AF78607B681B68184602F047FA0346184607F14A
S32D00010C680807BD4680BD00BF80B582B000AF78607B685B68184602F037FA0346184607F10807BD4680BD00BF8D
S32D00010C9090B583B000AF78607868FFF7D9FF03464FF00102144618460749FCF747FB0346002B02D14FF0000337
S32D00010CB81C46E3B2184607F10C07BD4690BD00BF0000003F90B583B000AF78607868FFF7BBFF03464FF0010245
S32D00010CE0144618461449FCF729FB0346002B02D14FF000031C46E3B2002B16D07868FFF7A7FF03464FF0010221
S32D00010D08144618460B49FCF733FB0346002B02D14FF000031C46E3B2002B02D04FF0010301E04FF0000318464E
S32D00010D3007F10C07BD4690BD0000803F0000003F80B582B000AF78607868FFF7A1FF0346002B0DD041F234130C
S32D00010D58C1F6FF731B68184600F026FD40A1D1E9000101F0B9FD31E041F23013C1F6FF731B6818463C4900F006
S32D00010D809FF941F23013C1F6FF731B681846394900F038F941F23013C1F6FF731B68184600F066FA4FF000007A
S32D00010DA84FF07E5101F5A00101F096FD41F23413C1F6FF731B68184600F0E6FC4FF000004FF07E5101F5C00199
S32D00010DD001F086FD41F23013C1F6FF731B681846254900F089F94FF000004FF07E5101F5D00101F075FD41F276
S32D00010DF83013C1F6FF731B68184600F035FA4FF000004FF0804101F5A01101F065FD41F23013C1F6FF731B6805
S32D00010E201846134900F04CF941F23013C1F6FF731B681846114900F0E5F841F23013C1F6FF731B68184600F09D
S32D00010E4813FA41F23413C1F6FF731B68184600F0ABFC07F10807BD4680BD00BFAFF300809A9999999999C93F8C
S32D00010E700000F041CDCC4C3E0000A0410000803F90B583B000AF786039607B68012B11D13A684FF6FF739A42A1
S32D00010E980CD14FF0080009F073FB04462046FFF793FE41F22C13C1F6FF731C6007F10C07BD4690BD80B500AF13
S32D00010EC04FF001004FF6FF71FFF7DAFF80BD00BF90B583B000AF78604FF0080009F054FB044620464FF00001C5
S32D00010EE8254A00F0B9FE7B685C604FF0080009F047FB044620464FF001011F4A00F0ACFE7B681C604FF0010011
S32D00010F1009F03AFB044620464FF00A0101F066FD7B68DC604FF0010009F02EFB044620464FF0020102F0CCF80D
S32D00010F387B681C614FF0010009F022FB044620464FF0010102F0C0F87B685C614FF0010009F016FB044620469F
S32D00010F604FF0000102F0B4F87B689C617B684FF00002DA777B68184607F10C07BD4690BD0000404180B584B0A9
S32D00010F8800AF786039604FF00003FB607B68DB68184601F04BFE0346FB7221E041F2FC10C1F6FF704BF68801D9
S32D00010FB0C0F2010103F034FC41F2FC10C1F6FF70F96803F00FFD7B68DB68184601F032FE0346BB72BA7AFB7AB2
S32D00010FD89A4205D0FB6803F10103FB60BB7AFB72FA683B689A42ACBF00230123DBB2002BD4D107F11007BD46DF
S32D0001100080BD00BF80B586B000AF786039604FF000037B617B68DB68184601F00BFE0346FB7438682549FBF7E6
S32D00011028EBFF03461846FBF753FB02460B46104619464FF000024FF0804303F51413FBF7C5FC02460B46104676
S32D000110501946FBF72FFE0346FB6021E041F2FC10C1F6FF704BF68801C0F2010103F0D8FB41F2FC10C1F6FF7040
S32D00011078796903F0B3FC7B68DB68184601F0D6FD0346FB72FA7AFB7C9A4205D07B6903F101037B61FB7AFB748F
S32D000110A07A69FB689A42ACBF00230123DBB2002BD4D107F11807BD4680BD00BF0000404280B582B000AF78606A
S32D000110C839607B681A683B6883F000431046194600F06AFE7B685A683B6883F000431046194600F061FE07F19B
S32D000110F00807BD4680BD00BF80B582B000AF786039607B681B681846396800F051FE7B685B681846396800F003
S32D000111184BFE07F10807BD4680BD00BF80B584B000AF7860396038681549FCF719F8034618461449FBF760FF79
S32D0001114003461846FCF722F90346FB607B681B6818460F4900F02CFE7B685B6818460D4900F026FE7868F96842
S32D00011168FFF70CFF7B685B68184600F0CDFD7B681B68184600F0C8FD07F11007BD4680BD0000B4420000404259
S32D000111900000F0C10000F04180B584B000AF7860396038681549FBF7DFFF034618461449FBF726FF0346184635
S32D000111B8FCF7E8F80346FB607B681B6818460F4900F0F2FD7B685B6818460D4900F0ECFD7868F968FFF7D2FE5C
S32D000111E07B685B68184600F093FD7B681B68184600F08EFD07F11007BD4680BD0000B442000040420000F04125
S32D000112080000F0C180B584B000AFF860B9607A60FB681A68BB6883F000431046194600F0C3FDFB685A687B6878
S32D0001123083F000431046194600F0BAFD07F11007BD4680BD80B584B000AFF860B9607A60FB681B681846B96866
S32D0001125800F0AAFDFB685B681846796800F0A4FD07F11007BD4680BD80B582B000AF78607B681B68184600F0E9
S32D0001128047FD7B685B68184600F042FD07F10807BD4680BD00000000B0B586B000AF78604FF00003FB75C04BA2
S32D000112A83B614FF00003FB738FE17B681B69184601F01AFF03464FF0010214461846B949FCF738F80346002BB0
S32D000112D002D14FF000031C46E2B27B681A777B689B69184601F004FF03464FF0010214461846AE49FCF722F8F0
S32D000112F80346002B02D14FF000031C46E2B27B689A777B685B69184601F0EEFE03461846FBF7DEF902460B4669
S32D000113204FF001010C46104619469DA3D3E90023FBF798FC0346002B02D14FF000031C46E2B27B685A777B689B
S32D000113485B7F002B12D07B681B7F83F00103DBB2002B0BD07B689B7F83F00103DBB2002B04D07B684FF00002E4
S32D00011370DA7754E07B685B7F002B0FD07B689B7F002B0BD07B681B7F83F00103DBB2002B04D07B684FF0020259
S32D00011398DA7740E07B685B7F002B0FD07B681B7F002B0BD07B689B7F83F00103DBB2002B04D07B684FF0010246
S32D000113C0DA772CE07B681B7F002B12D07B689B7F83F00103DBB2002B0BD07B685B7F83F00103DBB2002B04D050
S32D000113E87B684FF00302DA7715E07B689B7F002B11D07B681B7F83F00103DBB2002B0AD07B685B7F83F00103A6
S32D00011410DBB2002B03D07B684FF00402DA777B68DB7F052B00F2A58001A252F823F000BF49140100D51401001E
S32D00011438F514010015150100351501005515010078685949594AFFF7DDFE41F2FC10C1F6FF704BF69801C0F2B3
S32D00011460010103F0ABFA38694F49FBF75DFF0346002B27D101F060FA04460D463869FBF72BF902460B46204632
S32D000114882946FAF7C5FF02460B464FF001010C46104619464FF000024FF07E5303F5F003FBF7FAFB0346002B99
S32D000114B002D14FF000031C46E3B2002B02D04FF0010301E04FF00003002B51D04FF00103FB754DE07868384911
S32D000114D8354AFFF797FE41F2FC10C1F6FF704BF6A801C0F2010103F065FA3EE078682E492F4AFFF787FE41F2EA
S32D00011500FC10C1F6FF704BF6B401C0F2010103F055FA2EE078682949254AFFF777FE41F2FC10C1F6FF704BF6BE
S32D00011528C001C0F2010103F045FA1EE078681E49204AFFF767FE41F2FC10C1F6FF704BF6CC01C0F2010103F0C9
S32D0001155035FA0EE07868FFF78BFE41F2FC10C1F6FF704BF6D801C0F2010103F027FA00E000BF7B68DB7F002BA2
S32D0001157822D17B68DB7FFA7B9A421DD001F0D8F902460B4610461946FBF7D8FB03463B6118E000BFAFF3008043
S32D000115A07B14AE47E17AC43F000000000000003F000048420000A041000020C1000048C27B68DB7F002B01D06C
S32D000115C8094B3B617B68DB7FFB73FB7D83F00103DBB2002B7FF469AE7868FFF745FE07F11807BD46B0BD00BFC9
S32D000115F000000000AFF3008090B585B000AF78604FF00003FB734FF00003BB732CE078681A49FFF771FD7B68F3
S32D000116189B69184601F068FD03464FF00102144618461549FBF786FE0346002B02D14FF000031C46E2B27B6872
S32D000116409A77BB7B002B0CD07B689B7F83F00103DBB2002B05D04FF00103FB737868FFF707FE7B689B7FBB7375
S32D00011668FB7B83F00103DBB2002BCCD107F11407BD4690BD0000F0410000003F90B583B000AF786039607B68C3
S32D00011690012B11D13A684FF6FF739A420CD14FF0200008F071FF04462046FFF711FC41F23013C1F6FF731C6076
S32D000116B807F10C07BD4690BD80B500AF4FF001004FF6FF71FFF7DAFF80BD00BF90B583B000AF78604FF00C00BA
S32D000116E008F052FF044620464FF0070102F0A8F87B681C604FF00C0008F046FF044620464FF0060102F09CF8A6
S32D000117087B685C607B681B68184640F6331102F0CFF87B681B6818464FF4FA7102F0AAF87B685B68184640F6DC
S32D00011730EB0102F0C1F87B685B6818464FF4FA7102F09CF87B68184607F10C07BD4690BD80B582B000AF786031
S32D000117587B685B681846034902F0CAF807F10807BD4680BD0000704280B582B000AF78607B685B681846034927
S32D0001178002F0BAF807F10807BD4680BD00008C4280B582B000AF78607B681B681846034902F0AAF807F10807E8
S32D000117A8BD4680BD0000000080B582B000AF78607B681B681846034902F09AF807F10807BD4680BD0000824245
S32D000117D090B583B000AF786039607B68012B11D13A684FF6FF739A420CD14FF0080008F0CBFE04462046FFF7A1
S32D000117F86DFF41F23413C1F6FF731C6007F10C07BD4690BD80B500AF4FF001004FF6FF71FFF7DAFF80BD00BF38
S32D0001182080B500AF41F6DC22C1F6FF7241F22813C1F6FF73D31A194641F22813C1F6FF731A460B4610464FF098
S32D0001184800011A4607F0FBFD80BD00BF08F07CFE00F0B0F9FFF7E0FF08F04EFE08F0EAFD08F082FE00F00CF8B6
S32D000118704FF0000041F23811C1F6FF71FCF718FE0346184607F0BAFD80B500AF4FF4E043C4F204034FF4E0429D
S32D00011898C4F2040202F5805202F13802126842F4785203F5805303F138031A6000F02EF900F094F841F2481360
S32D000118C0C1F6FF734FF058021A6041F24813C1F6FF731B684FF47A7202FB03F241F24413C1F6FF731A6041F202
S32D000118E84413C1F6FF731B681A464FF4E043C4F2040303F5825303F104031B6803F070634FEA136303F1010393
S32D00011910B2FBF3F31A4641F24C13C1F6FF731A604FF4E043C4F204034FF4E042C4F2040202F5805202F13C0242
S32D00011938126842F0225203F5805303F13C031A604FF4E043C4F204034FF4E042C4F2040202F5805202F13002B6
S32D00011960126842F0006203F5805303F130031A604FF45043C4F203034FF480721A614FF0640000F025FE4FF4A3
S32D000119885043C4F203034FF45042C4F20302526922F010025A614FF45043C4F203034FF000021A604FF4504394
S32D000119B0C4F203034FF010025A6101F0CBFC01F073FD41F24010C1F6FF7000F085FE41F2FC10C1F6FF7002F0B4
S32D000119D853FB41F2883000F063FF80BD80B400AF4FF48043C4F206034FF000025A704FF48043C4F206034FF061
S32D00011A0098021A704FF48043C4F206039B79DBB203F01003002B0CBF00230123DBB2002BF0D14FF48043C4F2B5
S32D00011A2806039B79DBB203F00C034FEA9303022B0CBF00230123DBB2002BEED14FF48043C4F206034FF0180240
S32D00011A501A714FF48043C4F206034FF000025A714FF4E043C4F2040303F5825303F104034FF00002C0F2131208
S32D00011A781A604FF48043C4F206034FF054025A7100BF4FF48043C4F206039B79DBB203F02003002B14BF002344
S32D00011AA00123DBB2002BF0D100BF4FF48043C4F206039B79DBB203F04003002B14BF00230123DBB2002BF0D161
S32D00011AC84FF48043C4F206034FF48042C4F206021278D2B202F03F02D2B21A704FF48043C4F206039B79DBB2B2
S32D00011AF003F00C034FEA9303032B0CBF00230123DBB2002BEED14FF000031846BD4680BC704700BF80B400AF07
S32D00011B184FF44043C4F204034FF480725A634FF2C003C4F20F034FF2C002C4F20F02526942F400525A614FF254
S32D00011B40C003C4F20F034FF2C002C4F20F02126842F400521A604FF44043C4F2040340F20312C0F20A021A63A0
S32D00011B684FF46143CEF200034FF46142CEF20002D2F8882142F08062C3F888214FF46143CEF200034FF4614281
S32D00011B90CEF20002926842F080629A60BD4680BC704700BF80B483B000AF7860FEE700BF80B400AF00BEBD4671
S32D00011BB880BC704780B400AF4FF0E0224CF20003C0F20003C2F8083D4FF40053C4F205034CF22052DA814FF450
S32D00011BE00053C4F205034DF62812DA814FF40053C4F205034FF0D2021A80BD4680BC704780B400AF4FF440434D
S32D00011C08C4F20403D3F8A03003F48053002B0CBF00230123DBB2002B19D04FF44043C4F204034FF44042C4F2AF
S32D00011C300402D2F8A02022F48052C3F8A0204FF2C003C4F20F034FF2C002C4F20F02126822F400521A60BD469D
S32D00011C5880BC70470000000090B585B000AFF8600B467A60FB72FB68FA7A1A71FB684FF000025A714FF001033D
S32D00011C801C4678682049FBF777FB0346002B02D14FF000031C46E3B2002B02D01A4B7B6011E04FF001031C46D3
S32D00011CA878681849FBF750FB0346002B02D14FF000031C46E3B2002B01D0124B7B607868FAF706FD02460B466E
S32D00011CD0104619460AA3D3E90023FAF751FD02460B4610461946FBF72DF80246FB681A60FB68184607F1140707
S32D00011CF8BD4690BDAFF30080ABAAAAAAAAAA2040000040410000803F80B582B000AF78607B685B79002B10D0FE
S32D00011D207B684FF000025A717B681B7941F24010C1F6FF7019464FF000024FF01E0300F015FD07F10807BD4679
S32D00011D4880BD00BF80B584B000AF786039603B687F2B03DD4FF07F03FB7309E03B6813F1800F03DA4FF08003CD
S32D00011D70FB7301E03B68FB737B685B79FA7B9A420FD07B68FA7B5A717B681A79FB7B41F24010C1F6FF701146EE
S32D00011D981A464FF01E0300F0E5FC07F11007BD4680BD00BF00000000B0B584B000AF786039604FF001031C461F
S32D00011DC038684D49FBF7BAFA0346002B02D14FF000031C46E3B2002B02D0474B3B6011E04FF001031C46386838
S32D00011DE84449FBF7C5FA0346002B02D14FF000031C46E3B2002B01D03E4B3B603868FAF767FC04460D467B687A
S32D00011E101B681846FAF760FC02460B46104619464FF000024FF0804303F5B203FAF7D2FD02460B462046294609
S32D00011E38FAF7A2FC02460B4610461946FAF77EFF03463B604FF001031C4638682A49FBF785FA0346002B02D1DC
S32D00011E604FF000031C46E3B2002B14D03868FAF733FC02460B46104619461DA3D3E90023FAF77EFC02460B465A
S32D00011E8810461946FAF712FF0346FB6022E03868FAF71EFC02460B46104619464FF000024FF0804303F5C003D7
S32D00011EB0FAF766FC02460B46104619464FF000024FF0804303F5B203FAF784FD02460B4610461946FAF7EEFED5
S32D00011ED80346FB607868F968FFF734FF07F11007BD46B0BDAFF3008052B81E85EB51F43F0000C8C20000C8427C
S32D00011F0000000000AFF3008080B485B000AF02460B46FA71BB71BB79002B07D141F23C13C1F6FF734FF0000225
S32D00011F281A7006E041F23C13C1F6FF734FF001021A704FF03803FB7341F23C13C1F6FF731A78FB7B1343FB7344
S32D00011F504FF4C043C4F206034FF4C042C4F206029278D2B242F01002D2B29A704FF4C043C4F206034FF4C042B0
S32D00011F78C4F206029278D2B242F02002D2B29A704FF4C043C4F20603FA7B1A7107F11407BD4680BC704700BF3F
S32D00011FA080B483B000AF4FF001037B6004E000BF7B6803F101037B607B68312BCCBF00230123DBB2002BF2D1F9
S32D00011FC807F10C07BD4680BC704700BF80B582B000AF02460B46FA71BB7141F23D13C1F6FF731B7818464FF008
S32D00011FF00001FFF789FF4FF4C043C4F20603DB78DBB203F00203002B14BF00230123DBB2002BF0D14FF4C04362
S32D00012018C4F206034FF4C042C4F20602D278D2B242F00202D2B2DA704FF4C043C4F20603FA791A714FF4C043BC
S32D00012040C4F20603DB78DBB203F00203002B14BF00230123DBB2002BF0D14FF4C043C4F206034FF4C042C4F21C
S32D000120680602D278D2B242F00202D2B2DA704FF4C043C4F20603BA791A714FF4C043C4F20603DB78DBB203F0D4
S32D000120900203002B14BF00230123DBB2002BF0D14FF4C043C4F206034FF4C042C4F20602D278D2B242F0020252
S32D000120B8D2B2DA704FF4C043C4F206034FF4C042C4F206029278D2B222F02002D2B29A704FF4C043C4F20603CE
S32D000120E04FF4C042C4F206029278D2B222F01002D2B29A70FFF754FF07F10807BD4680BD80B582B000AF03469F
S32D00012108FB71FB79184600F06BF807F10807BD4680BD00BF80B582B000AF02460B46FA71BB7100F039F8FB7936
S32D000121304FEA4303DBB21846FFF7E2FFBB791846FFF7DEFF00F03EF807F10807BD4680BD80B500AF4FF0FF004B
S32D0001215800F046F80346184680BD00BF80B584B000AF0346FB7100F017F8FB794FEA4303DBB243F00103DBB277
S32D00012180DBB21846FFF7BCFFFFF7E2FF0346FB7300F018F8FB7B184607F11007BD4680BD80B400AF4FF240037C
S32D000121A8C4F20F034FF24002C4F20F02926842F480129A60BD4680BC704700BF80B400AF4FF24003C4F20F0356
S32D000121D04FF24002C4F20F02526842F480125A60BD4680BC704700BF80B485B000AF0346FB714FF00003BB7368
S32D000121F803E0FB7B03F10103FB734FF44043C4F20A03DB6A4FF00003002BF2D14FF44043C4F20A034FF44042AD
S32D00012220C4F20A02D26A42F00042DA624FF44043C4F20A03FA795A6300BF4FF44043C4F20A03DB6A03F4003371
S32D00012248002B14BF00230123DBB2002BF1D14FF44043C4F20A039B6BBB73BB7B184607F11407BD4680BC70474E
S32D0001227080B582B000AF4FF4E043C4F204034FF4E042C4F2040202F5805202F13002126842F4805203F58053AA
S32D0001229803F130031A604FF42043C4F204034FF480721A654FF24003C4F20F034FF24002C4F20F02526942F4D8
S32D000122C080125A61FFF77EFF4FF42043C4F204034FF400725A654FF42043C4F204034FF400729A654FF420439B
S32D000122E8C4F204034FF40072DA654FF44043C4F20A034FF44062C8F200021A604FF44043C4F20A034FF00502A3
S32D00012310C3F60062DA604FF000037B6007E04FF0FF00FFF7EDFE7B6803F101037B607B68092BCCBF0023012387
S32D00012338DBB2002BEFD104A1D1E9000100F0CCFA07F10807BD4680BD9A9999999999B93F90B486B000AFF86091
S32D00012360B9607A60FA684FF42043C4F206039A4214D14FF4E043C4F204034FF4E042C4F2040202F5805202F1D3
S32D000123883402126842F4806203F5805303F134031A6083E0FA684FF43043C4F206039A4214D14FF4E043C4F2D7
S32D000123B004034FF4E042C4F2040202F5805202F13402126842F4006203F5805303F134031A6067E0FA684FF476
S32D000123D84043C4F206039A4214D14FF4E043C4F204034FF4E042C4F2040202F5805202F13402126842F480521B
S32D0001240003F5805303F134031A604BE0FA684FF45043C4F206039A4214D14FF4E043C4F204034FF4E042C4F21C
S32D00012428040202F5805202F13402126842F4005203F5805303F134031A602FE0FA684FF42043C4F20E039A4261
S32D0001245014D14FF4E043C4F204034FF4E042C4F2040202F5805202F12802126842F4806203F5805303F12803D2
S32D000124781A6013E04FF4E043C4F204034FF4E042C4F2040202F5805202F12802126842F4006203F5805303F1CD
S32D000124A028031A60FB68DB78DBB223F00C03DAB2FB68DA70FB684FF000029A70BB684FF47A7202FB03F27B68F5
S32D000124C84FEA031392FBF3F39CB2FB681B78DBB223F01F03FB75234603F4F8534FEA2323DBB203F01F03DAB255
S32D000124F0FB7D1343DAB2FB681A70E2B2FB685A70BB684FF4FA4202FB03F27B684FEA031392FBF3F39AB22346C7
S32D0001251819464FEAC121CB1A4FEA43139BB2D3189CB2FB689B7ADBB223F01F03FB75E3B203F01F03DAB2FB7DC8
S32D000125401343DAB2FB689A72FB68DB78DBB243F00C03DAB2FB68DA7007F11807BD4690BC704700BF80B483B01A
S32D0001256800AF786000BF7B681B79DBB203F02003002B14BF00230123DBB2002BF3D17B68DB79DBB2184607F109
S32D000125900C07BD4680BC704780B483B000AF78600B46FB7000BF7B681B79DBB2DBB26FEA0303DBB24FEAD3130E
S32D000125B8DBB2002BF3D17B68FA78DA7107F10C07BD4680BC704700BF80B483B000AF78604FF4E043C4F2040307
S32D000125E04FF4E042C4F2040202F5805202F13802126842F0010203F5805303F138031A604FF00003C4F2040393
S32D000126087A689A604FF00003C4F204034FF005025A604FF00003C4F204034FF00002C4F20402126842F001021D
S32D000126301A6000BF4FF00003C4F204031B6803F08003002B14BF00230123DBB2002BF1D14FF00003C4F204038C
S32D000126584FF00002C4F20402126822F001021A6007F10C07BD4680BC704700BF80B582B000AF786039607B6823
S32D00012680012B0AD13A684FF6FF739A4205D141F24010C1F6FF7000F00FF807F10807BD4680BD00BF80B500AF8F
S32D000126A84FF001004FF6FF71FFF7E0FF80BD00BF80B483B000AF78607B684FF000021A707B68184607F10C0755
S32D000126D0BD4680BC704700BF80B582B000AF78607B681B7883F00103DBB2002B36D04FF4E043C4F2040303F572
S32D000126F8805303F128034FF400621A604FF45043C4F204034FF440721A624FF45043C4F204034FF440725A625A
S32D0001272041F24413C1F6FF731B684FEAD372D3184FEA63034FF43040C4F20E0019464FF46142FFF709FE4FF054
S32D00012748640000F0ADF87B684FF001021A704FF0010301E04FF00003184607F10807BD4680BD00BF80B582B089
S32D0001277000AF7860F970BA707B704FF43040C4F20E004FF07F01FFF707FF4FF43040C4F20E004FF00801FFF74E
S32D00012798FFFEFB784FF43040C4F20E001946FFF7F7FEBB784FF43040C4F20E001946FFF7EFFE7B784FF430404F
S32D000127C0C4F20E001946FFF7E7FE4FF43040C4F20E004FF0FF01FFF7DFFE07F10807BD4680BD00BF80B487B0F2
S32D000127E800AFF860B9607A60FA6844F6D353C1F26203A3FB02134FEA9312BB68D3187B61FA6844F6D353C1F2FE
S32D000128106203A3FB02134FEA93134FF47A7101FB03F3D31AFB60FB684FEAC33244F6D353C1F26203A3FB02137E
S32D000128384FEA93127B68D3183B613B694FEAD3337A69D3187B613B694FEA43434FEA53433B614FF45043C4F242
S32D0001286003031B681A467B699A4211D34FF45043C4F203031B681A467B699A420BD14FF45043C4F203035B6856
S32D000128881A463B699A4202D24FF0010301E04FF00003002BDDD107F11C07BD4680BC704780B584B000AF78602D
S32D000128B04FF45043C4F203031B68FB604FF45043C4F203035B68BB607B681846F968BA68FFF788FF07F11007C9
S32D000128D8BD4680BD0000000080B584B000AFC7E900014FF45043C4F203031B68FB604FF45043C4F203035B6803
S32D00012900BB60D7E900010AA3D3E90023F9F738FF02460B4610461946FAF7F4F903461846F968BA68FFF75EFF70
S32D0001292807F11007BD4680BD0000000000408F4080B584B000AF4FF45043C4F203031B68FB604FF45043C4F20E
S32D0001295003035B68BB60F868F9F79CFE02460B46C7E90023B868F9F795FE02460B46104619464FF000024FF0AD
S32D00012978804303F56003FAF729F802460B46D7E90001F9F747FD02460B46C7E90023D7E900231046194607F176
S32D000129A01007BD4680BD00BF80B483B000AF4FF45043C4F203031B684FF47A7202FB03F37B604FF45043C4F23E
S32D000129C803035B684FF47A7202FB03F34FEAD3337A68D3187B607B68184607F10C07BD4680BC704780B582B065
S32D000129F000AF78600B46FB70FB787868194600F007F87B68184607F10807BD4680BD00BF80B483B000AF78609F
S32D00012A180B46FB707B68FA781A707B681B781A464BF6B033C0F201039B5C042B00F2F98001A252F823F000BFF4
S32D00012A40552A0100B32A0100112B01006F2B0100CD2B01004FF41043C4F204037A68127811464BF6F432C0F209
S32D00012A68010252F8212040F2031143F822104FF47043C4F20F034FF47042C4F20F02526911467A6812781046B0
S32D00012A904BF6F432C0F2010252F8202002F01F024FF0010000FA02F26FEA02020A405A61BBE04FF42043C4F2D7
S32D00012AB804037A68127811464BF6F432C0F2010252F8212040F2031143F822104FF24003C4F20F034FF24002FC
S32D00012AE0C4F20F02526911467A68127810464BF6F432C0F2010252F8202002F01F024FF0010000FA02F26FEAEC
S32D00012B0802020A405A618CE04FF43043C4F204037A68127811464BF6F432C0F2010252F8212040F2031143F8CB
S32D00012B3022104FF28003C4F20F034FF28002C4F20F02526911467A68127810464BF6F432C0F2010252F82020B4
